:020000040000fa
:080000000002040000000000f2
:020000040000fa
:04000800640300008d
:020000040000fa
:04000c00a603000047
:020000040000fa
:04001000e603000003
:020000040000fa
:040014008403000061
:020000040000fa
:04001800c60300001b
:020000040000fa
:04001c008604000056
:020000040000fa
:0400200006040000d2
:020000040000fa
:04002400860400004e
:020000040000fa
:04002800860400004a
:020000040000fa
:04002c00500400007c
:020000040000fa
:040030008604000042
:020000040000fa
:04003400860400003e
:020000040000fa
:04003800860400003a
:020000040000fa
:04003c008604000036
:020000040000fa
:040040008604000032
:020000040000fa
:04004400860400002e
:020000040000fa
:04004800860400002a
:020000040000fa
:04004c008604000026
:020000040000fa
:040050008604000022
:020000040000fa
:04005400860400001e
:020000040000fa
:04005800860400001a
:020000040000fa
:04005c008604000016
:020000040000fa
:040060008604000012
:020000040000fa
:04006400860400000e
:020000040000fa
:04006800860400000a
:020000040000fa
:04006c008604000006
:020000040000fa
:040070008604000002
:020000040000fa
:0400740086040000fe
:020000040000fa
:0400780086040000fa
:020000040000fa
:04007c0086040000f6
:020000040000fa
:0400800086040000f2
:020000040000fa
:0400840086040000ee
:020000040000fa
:0400880086040000ea
:020000040000fa
:04008c0086040000e6
:020000040000fa
:0400900086040000e2
:020000040000fa
:0400940086040000de
:020000040000fa
:0400980086040000da
:020000040000fa
:04009c0086040000d6
:020000040000fa
:0400a00086040000d2
:020000040000fa
:0400a40086040000ce
:020000040000fa
:0400a80086040000ca
:020000040000fa
:0400ac0086040000c6
:020000040000fa
:0400b00086040000c2
:020000040000fa
:0400b40086040000be
:020000040000fa
:0400b80086040000ba
:020000040000fa
:0400bc0086040000b6
:020000040000fa
:0400c00086040000b2
:020000040000fa
:0400c40086040000ae
:020000040000fa
:0400c80086040000aa
:020000040000fa
:0400cc0086040000a6
:020000040000fa
:0400d00086040000a2
:020000040000fa
:0400d400860400009e
:020000040000fa
:0400d800860400009a
:020000040000fa
:0400dc008604000096
:020000040000fa
:0400e0008604000092
:020000040000fa
:0400e400860400008e
:020000040000fa
:0400e800860400008a
:020000040000fa
:0400ec008604000086
:020000040000fa
:0400f0008604000082
:020000040000fa
:0400f400860400007e
:020000040000fa
:0400f800860400007a
:020000040000fa
:0400fc008604000076
:020000040000fa
:040100008604000071
:020000040000fa
:04010400860400006d
:020000040000fa
:040108008604000069
:020000040000fa
:04010c008604000065
:020000040000fa
:040110008604000061
:020000040000fa
:04011400860400005d
:020000040000fa
:040118008604000059
:020000040000fa
:04011c008604000055
:020000040000fa
:040120008604000051
:020000040000fa
:04012400860400004d
:020000040000fa
:040128008604000049
:020000040000fa
:04012c008604000045
:020000040000fa
:040130008604000041
:020000040000fa
:04013400860400003d
:020000040000fa
:040138008604000039
:020000040000fa
:04013c008604000035
:020000040000fa
:040140008604000031
:020000040000fa
:04014400860400002d
:020000040000fa
:040148008604000029
:020000040000fa
:04014c008604000025
:020000040000fa
:040150008604000021
:020000040000fa
:04015400860400001d
:020000040000fa
:040158008604000019
:020000040000fa
:04015c008604000015
:020000040000fa
:040160008604000011
:020000040000fa
:04016400860400000d
:020000040000fa
:040168008604000009
:020000040000fa
:04016c008604000005
:020000040000fa
:040170008604000001
:020000040000fa
:0401740086040000fd
:020000040000fa
:0401780086040000f9
:020000040000fa
:04017c0086040000f5
:020000040000fa
:0401800086040000f1
:020000040000fa
:0401840086040000ed
:020000040000fa
:0401880086040000e9
:020000040000fa
:04018c0086040000e5
:020000040000fa
:0401900086040000e1
:020000040000fa
:0401940086040000dd
:020000040000fa
:0401980086040000d9
:020000040000fa
:04019c0086040000d5
:020000040000fa
:0401a00086040000d1
:020000040000fa
:0401a40086040000cd
:020000040000fa
:0401a80086040000c9
:020000040000fa
:0401ac0086040000c5
:020000040000fa
:0401b00086040000c1
:020000040000fa
:0401b40086040000bd
:020000040000fa
:0401b80086040000b9
:020000040000fa
:0401bc0086040000b5
:020000040000fa
:0401c00086040000b1
:020000040000fa
:0401c40086040000ad
:020000040000fa
:0401c80086040000a9
:020000040000fa
:0401cc0086040000a5
:020000040000fa
:0401d00086040000a1
:020000040000fa
:0401d400860400009d
:020000040000fa
:0401d8008604000099
:020000040000fa
:0401dc008604000095
:020000040000fa
:0401e0008604000091
:020000040000fa
:0401e400860400008d
:020000040000fa
:0401e8008604000089
:020000040000fa
:0401ec008604000085
:020000040000fa
:0401f0008604000081
:020000040000fa
:0401f400860400007d
:020000040000fa
:0401f8008604000079
:020000040000fa
:0401fc008604000075
:020000040000fa
:040200008604000070
:020000040000fa
:04020400860400006c
:020000040000fa
:040208008604000068
:020000040000fa
:04020c008604000064
:020000040000fa
:040210008604000060
:020000040000fa
:04021400860400005c
:020000040000fa
:040218008604000058
:020000040000fa
:04021c008604000054
:020000040000fa
:040220008604000050
:020000040000fa
:04022400860400004c
:020000040000fa
:040228008604000048
:020000040000fa
:04022c008604000044
:020000040000fa
:040230008604000040
:020000040000fa
:04023400860400003c
:020000040000fa
:040238008604000038
:020000040000fa
:04023c008604000034
:020000040000fa
:040240008604000030
:020000040000fa
:04024400860400002c
:020000040000fa
:040248008604000028
:020000040000fa
:04024c008604000024
:020000040000fa
:040250008604000020
:020000040000fa
:04025400860400001c
:020000040000fa
:040258008604000018
:020000040000fa
:04025c008604000014
:020000040000fa
:040260008604000010
:020000040000fa
:04026400860400000c
:020000040000fa
:040268008604000008
:020000040000fa
:04026c008604000004
:020000040000fa
:040270008604000000
:020000040000fa
:0402740086040000fc
:020000040000fa
:0402780086040000f8
:020000040000fa
:04027c0086040000f4
:020000040000fa
:0402800086040000f0
:020000040000fa
:0402840086040000ec
:020000040000fa
:0402880086040000e8
:020000040000fa
:04028c0086040000e4
:020000040000fa
:0402900086040000e0
:020000040000fa
:0402940086040000dc
:020000040000fa
:0402980086040000d8
:020000040000fa
:04029c0086040000d4
:020000040000fa
:0402a00086040000d0
:020000040000fa
:0402a40086040000cc
:020000040000fa
:0402a80086040000c8
:020000040000fa
:0402ac0086040000c4
:020000040000fa
:0402b00086040000c0
:020000040000fa
:0402b40086040000bc
:020000040000fa
:0402b80086040000b8
:020000040000fa
:0402bc0086040000b4
:020000040000fa
:0402c00086040000b0
:020000040000fa
:0402c40086040000ac
:020000040000fa
:0402c80086040000a8
:020000040000fa
:0402cc0086040000a4
:020000040000fa
:0402d00086040000a0
:020000040000fa
:0402d400860400009c
:020000040000fa
:0402d8008604000098
:020000040000fa
:0402dc008604000094
:020000040000fa
:0402e0008604000090
:020000040000fa
:0402e400860400008c
:020000040000fa
:0402e8008604000088
:020000040000fa
:0402ec008604000084
:020000040000fa
:0402f0008604000080
:020000040000fa
:0402f400860400007c
:020000040000fa
:0402f8008604000078
:020000040000fa
:0402fc008604000074
:020000040000fa
:04030000860400006f
:020000040000fa
:04030400860400006b
:020000040000fa
:040308008604000067
:020000040000fa
:04030c008604000063
:020000040000fa
:04031000860400005f
:020000040000fa
:04031400860400005b
:020000040000fa
:040318008604000057
:020000040000fa
:04031c008604000053
:020000040000fa
:04032000860400004f
:020000040000fa
:10040000af0221000eff2c000e018800000020002a
:100410000000e000020032000001200020028800fd
:10042000140007003b0107000000e00003003a0051
:10043000609c200001002000020037000000200026
:1004400001002000810f70004220ae000f00070065
:10045000000020000000e0004220ae00000002008a
:100460000000000046070200000000000040da0023
:100470000000fe00200020000000e000020032002a
:10048000100020009001880000000600a1028800f2
:10049000800478000000eb001f003700e284440075
:1004a00054a0b4009905ba00e284440054a0b400fa
:1004b0009906ba00e284440054a0b4000006eb00a0
:1004c000476fde00fd07b200ae018800636ce100fb
:1004d00003003a000ad801000000eb000e003700cc
:1004e000606ce10008003a00004deb000a05e800ee
:1004f000020039003420ec000af0a0008b05e9006e
:10050000f9ff3e00040037006168e100010032009d
:100510000086eb000b00070019c7ba001905ba00e6
:100520000e04e00003003a000a00e000dbff3a009e
:1005300000000600fe07b200ae0288008a047800c0
:10054000f5ff37000cd0a300e20f4d001c0039006e
:1005500089027800354dba000a05e800020039002a
:100560003420ec000af0a0008b05e9000f003200f7
:10057000254dba000a05e800020039003420ec00dd
:100580000af0a0008b05e900080032000c00e00032
:100590000600320015cdba000a05e8000200390055
:1005a0003420ec000af0a0008b05e9008984e80003
:1005b00054a0b4000b00e000e2ff3a000000060087
:1005c0009902ba00055d78008b05e900f7ff32005b
:1005d000c82ade00055d78008b05e900f3ff3200d4
:1005e0000c00e000f1ff320019ddba00eeff370029
:1005f00004082000010037000002eb006100e10068
:1006000001003200100005003200f8003400f8004c
:1006100081027800930188003200be000100e000f2
:100620000c0032000470a70000f0a0003203780034
:10063000c733de00848343004220af008703e80015
:10064000a7018800f607b2007f30e1000400320005
:10065000200020003400f9003200f90000000600fc
:100660008100e9000500e00003003a000180090074
:1006700032100300e8ff37000180090032900300c8
:10068000d561ae00e4ff370030002000f1ff3700f5
:1006900050052000b00e8800a00a2000b00e88008f
:1006a000d3e1a8000000060050052000b00e88002d
:1006b000a00a2000b00e8800d3e1a90000000600c7
:1006c00072080400000000003600f800809fbe00a1
:1006d000829fbe00849fbe00869fbe000000fa007d
:1006e000c028a9000000eb00390307000080fa00d1
:1006f0004f03be004f02be004f01be004f00be00c0
:100700003600f900004006003600f800809fbe0069
:10071000829fbe00849fbe00869fbe000000fa003c
:1007200030030700c048a90010002000280307007c
:100730000080fa004f03be004f02be004f01be0012
:100740004f00be003600f900004006003600f800f9
:10075000809fbe00829fbe00849fbe00869fbe0019
:100760000000fa00c068a90020002000180307005c
:100770000080fa004f03be004f02be004f01be00d2
:100780004f00be003600f900004006003600f800b9
:10079000809fbe00829fbe00849fbe00869fbe00d9
:1007a0000000fa00c088a9003000200008030700fc
:1007b0000080fa004f03be004f02be004f01be0092
:1007c0004f00be003600f900004006003600f80079
:1007d000809fbe00829fbe00849fbe00869fbe0099
:1007e0000000fa00c608a90070002000f802070007
:1007f0000080fa004f03be004f02be004f01be0052
:100800004f00be003600f900004006003600f80038
:10081000809fbe00829fbe00849fbe00869fbe0058
:100820000000fa00214680000010200000806000d7
:100830000000e00003003200c508a900c00020004d
:10084000e3020700214680000002200000806000d3
:100850000000e00003003200c4a8a90090002000be
:10086000db02070020468000700060000000e0000e
:1008700003003200c488a900a0002000d4020700b1
:1008800020468000610060000000e00003003200ac
:10089000c408a900b0002000cd020700ffff370008
:1008a0003600f800809fbe00829fbe00849fbe007d
:1008b000869fbe000000fa00308080000000e0004b
:1008c0000200320030808000000001009002210010
:1008d000104078008040e800900221000148780034
:1008e0008002210011c0b300014878000028a9004f
:1008f0000080fa004f03be004f02be004f01be0051
:100900004f00be003600f900004006000040da004b
:100910000000fe00000005000001be001b000700f3
:100920000470a70003f0a10003f8a30013003a002d
:100930006509b10010003200090035006928e100a6
:100940000200350001002800000005000000400002
:10095000818048008502e900fcff3a0000000600a3
:10096000f88f4200050035008100d1000080d300df
:100970008502e800fcff3a00000006008000eb0062
:10098000000005006011b80049003700c70ade000a
:10099000f107b200f50fb20008003200e1cf4200cb
:1009a000020032000170a00024000500810f7000d9
:1009b000010032000408050044000500810f7000aa
:1009c00002003a00140005008502e9000000400022
:1009d00081c04800fcff3b000170a000240005001e
:1009e000889fbe008a9fbe008c1f7800850007008c
:1009f0008c00330003866c006450e1002400320058
:100a00006420e100270032006150e1002200320042
:100a10006120e100210032008b854200eb07b1002c
:100a20000134b800003ab8000804420089844a0042
:100a3000013ab8000030b8008880400009014a003f
:100a4000040033000000400081804800020149009a
:100a50008b05e900c909dd00830170000100320047
:100a600013002000c814de004814dd004709de0032
:100a70001200b200c808de00088470003b000700c6
:100a800001f0a1000cf0a70001f0a0006e003700fb
:100a90006120e100700032000801be000200be00cb
:100aa000f7ff37006150e100fcff3a006a003700b1
:100ab000889fbe008a9fbe00008270000402710001
:100ac00004827100260032000004be000200be0055
:100ad0006011b8006b092000950220000182cf0050
:100ae0000a0039000541b1000082cf00070039003b
:100af0000541b1000982cf00040039000541b10071
:100b00000882cf00010039000541b10005425200c2
:100b1000120032000a003b00828171006101640012
:100b20008100d1000080d3008984d3000884d300e1
:100b30008b05e8000442e800f7ff3a0007003700a1
:100b40000804440089844c0000004800818048006b
:100b50008b05e9000442e900f9ff3a0003000700b1
:100b60004f05be004f04be000000060081002000bb
:100b7000618055000b003d000b00200061fe2f003e
:100b80000100e1001d0034008281710061016400f8
:100b90008904d1000884d3000000e800faff3a007d
:100ba000710020006100640003007000020060001a
:100bb0000900320061044400e0844c000988a5006b
:100bc000050032008b05e8006808e10002003a00e9
:100bd0008904d1000884d300f20f20000258e100fc
:100be00005003d00c75ddd00f907b2008980750092
:100bf00008007800000006000bf827008b00780042
:100c0000000005000004be0060ff07000003be00f6
:100c10000405be000200be005cff0700844f7500a3
:100c2000000006000200be006450e100050036002e
:100c30006420e100020036000968a30001003a00c8
:100c40000800be000160a0004f0678004f05be00fe
:100c50004f04be0000000600f0ff2f00f1ff270048
:040c6000f9ff370061
:020000040000fa
:100c64000000fa00007c80000080fa00000006000a
:100c74000200fa00faff0700000f78001e00780057
:100c8400240007000004e0000200320000002800f5
:100c9400710007001e0078002a0007000004e0002d
:100ca40002003200000024006b0007001e007800e0
:100cb400320007000004e00002003200002020009f
:100cc400650007001e0078003a0007000004e000f9
:100cd40002003200000820005f0007001e007800b8
:100ce400420007000004e00002003200000420007b
:100cf400590007001e0078004a0007000004e000c5
:100d04000200320000012000530007000080fa00b6
:100d1400000006000400fa00100798000040eb00f1
:100d2400004f78001e0090000000e00002003d002b
:100d340010c0b300004f78001e4078000080fa0015
:100d4400000006000400fa00100798000040eb00c1
:100d5400004f78009e009000000024000080600096
:100d64000000e0000200320010c0b300004f780021
:100d74001e4078000080fa00000006000400fa001b
:100d8400100798000040eb00004f78009e00900090
:100d940000202000008060000000e000020032001b
:100da40010c0b300004f78001e4078000080fa00a5
:100db400000006000400fa00100798000040eb0051
:100dc400004f78009e009000000820000080600022
:100dd4000000e0000200320010c0b300004f7800b1
:100de4001e4078000080fa00000006000400fa00ab
:100df400100798000040eb00004f78009e00900020
:100e040000042000008060000000e00002003200c6
:100e140010c0b300004f78001e4078000080fa0034
:100e2400000006000400fa00100798000040eb00e0
:100e3400004f78001e009000700060000000e00089
:100e44000200320010c0b300004f78001e4078004a
:100e54000080fa00000006000200fa00000f78008b
:100e64009e80ea00007c800000806000007c880096
:100e74000080fa00000006000000fa00802fef0056
:100e84000080fa00000006000000fa0034010700a8
:100e94009e000700010037000000000000408000b1
:100ea400620060000000e000fbff32000028a9009f
:100eb400108080000000e80010808800108080000e
:100ec400e60f500001003a000230ef00108080006d
:100ed40010000700f1ff37000600fa002007980011
:100ee40000002200415f2400008fbe002e0090000d
:100ef4008000eb00a2fe07001e01be00b7fe070043
:100f040084fe070000007800400888000080fa0092
:100f1400000006000200fa00000f78001e007800ae
:100f2400e10f500009003200e10f500005003900c4
:100f3400e20f500008003200e30f50000a003200b4
:100f44000e003700762ea80010003700762ea90078
:100f5400760ea8000d003700762ea900760ea900a3
:100f64005aaea80009003700762ea900760ea90013
:100f74005aaea9005aeea80004003700762ea90044
:100f8400760ea9005aaea9005aeea9000080fa0014
:100f9400000006000200fa00000f78001e0078002e
:100fa400e20f500011003200e20f500005003e0035
:100fb4000000e00008003200e10f50000800320099
:100fc40016003700e30f50000c003200e40f50000d
:100fd4000e00320011003700762ea80012003700f0
:100fe400762ea800760ea8000f003700762ea800f3
:100ff400760ea8005aaea8000b003700762ea80083
:10100400760ea8005aaea90007003700762ea80075
:10101400760ea9005aaea90003003700760ea90087
:10102400762ea9005aaea9000080fa00000006003e
:101034000000fa000421ef0040e821004008880085
:101044000003280000088800308080000000e000d1
:1010540002003a0020872000240007000028a9008d
:101064002028a800800221008040eb00014878007d
:101074000080fa00000006000200fa00000f780069
:101084009e00780041088800800221008040eb0027
:10109400014878000080fa00000006000000fa0011
:1010a400400880000080fa00000006000200fa00f8
:1010b400000f78009e00780021088800800221003b
:1010c4008040eb00014878000080fa000000060030
:1010d4000000fa00200880000080fa0000000600ea
:1010e4000000fa000080fa00000006000200fa0086
:1010f400000f78002028a9009e0078003180880025
:101104002028a8000080fa00000006000000fa0071
:10111400800221008040eb00014878002028a800cc
:1011240001e1a8000080fa00000006000000fa00b7
:1011340001e1a9002028a9000080fa0000000600af
:101144000200fa0080022100104f78001e4078004f
:101154000004e00003003200800221008040eb0024
:10116400014878001e4078000080fa000000060064
:101174000000fa0090022100104078000080fb007b
:101184000080fa00000006000000fa00900221002e
:101194008040eb00014878000080fa00000006005f
:1011a4000000fa0010002300307c88006009200051
:1011b400407c88008c2fef0010042000507c8800b5
:1011c40010102000707c880060092000807c88005a
:1011d40010042000907c88009a2fef00b82fef00b5
:1011e400ba2fef00be2fef00002def00a42fef0069
:1011f400a62fef00a82fef00aa2fef00ae2fef00cd
:10120400b02fef00b22fef00720020008007200003
:10121400a109200053f82000804978008149780012
:10122400824978000001eb00600420007105200071
:1012340043f8200080497800814978008249780089
:101244000080fa00000006000000fa00707c8000b4
:10125400ee800a00000000000080fb0000f0a70000
:101264000000ea000000ea004f00de0000407800c1
:101274000080fa00000006000000fa00062eef00cd
:10128400222eef003e2eef005a2eef00762eef00b6
:10129400f001200010708800d0ff2f00f07088004b
:1012a4000080eb00d0718800f0f52f00b072880048
:1012b400c0ff2f00907388000c2eef00282eef0043
:1012c400442eef00602eef007c2eef000a2eef007c
:1012d400262eef00422eef005e2eef007a2eef0056
:1012e400082eef00242eef00402eef005c2eef00be
:1012f400782eef00f001200000708800d009200053
:10130400e0708800f00c2000c071880000c0270045
:10131400a072880000042000807388000080fa0016
:10132400000006000200fa00000f7800210280008d
:10133400200f2000008060001e0070002002880042
:101344000080fa00000006000000fa00c3e8a800cc
:1013540000000000000000000080fa000000060009
:101364000000fa00c4ff0700240007008cff0700f8
:101374002fff0700f4ff070000022000e9ff070029
:081384000080fa0000000600e1
:020000040000fa
:10138c000810000020000000800000000410000085
:10139c000200000082000000ffff000000100000af
:1013ac000400000080000000281000000200000073
:1013bc008000000006100000020000008000000009
:0413cc00000000001d
:020000040000fa
:1013d0000200fa00000f78009e007800218088004b
:1013e000ffff37000000fa0080002100800778002e
:1013f00000022100000188000080fa0000000600c1
:101400000000fa0001428000f0f82f000080600028
:101410000040a000004288000080fa0000000600a2
:020000040000fa
:02000004000af0
:04fe0000ffff000000
:020000040000fa
:02000004000af0
:04fe2000ffffff00e1
:020000040000fa
:02000004000af0
:04fe30007fffff0051
:020000040000fa
:02000004000af0
:04fe3800bfffff0009
:020000040000fa
:02000004000af0
:04fe40006003ff005c
:020000040000fa
:02000004000af0
:04fe4800ffffff00b9
:020000040000fa
:02000004000af0
:04fe5000dfffff00d1
:020000040000fa
:02000004000af0
:04fe58000000ff00a7
:020000040000fa
:02000004000af0
:04fe60000000ff009f
:020000040000fa
:02000004000af0
:04fe68000000ff0097
:020000040000fa
:02000004000af0
:04fe70000000ff008f
:020000040000fa
:02000004000af0
:04fe7800ffffff0089
:020000040000fa
:02000004000af0
:04fe8000fffcff0084
:020000040000fa
:02000004000af0
:04fe8800ffffff0079
:020000040000fa
:02000004000af0
:04feb000ffffff0051
:020000040000fa
:02000004000af0
:04fec000ffffff0041
:020000040000fa
:02000004000af0
:04fed000ffffff0031
:020000040000fa
:02000004000af0
:04fee000ffffff0021
:020000040000fa
:02000004000af0
:04fef000ffffff0011
:020000040000fa
:02000004000af0
:04fff800ffffff0008
:020000040000fa
:020000040100f9
:04300000ffffff00cf
:00000001FF
