:020000040000fa
:080000000002040000000000f2
:020000040000fa
:040008006803000089
:020000040000fa
:04000c00aa03000043
:020000040000fa
:04001000ea030000ff
:020000040000fa
:04001400880300005d
:020000040000fa
:04001800ca03000017
:020000040000fa
:04001c008a04000052
:020000040000fa
:040020000a040000ce
:020000040000fa
:040024008a0400004a
:020000040000fa
:040028008a04000046
:020000040000fa
:04002c005404000078
:020000040000fa
:040030008a0400003e
:020000040000fa
:040034008a0400003a
:020000040000fa
:040038008a04000036
:020000040000fa
:04003c008a04000032
:020000040000fa
:040040008a0400002e
:020000040000fa
:040044008a0400002a
:020000040000fa
:040048008a04000026
:020000040000fa
:04004c008a04000022
:020000040000fa
:040050008a0400001e
:020000040000fa
:040054008a0400001a
:020000040000fa
:040058008a04000016
:020000040000fa
:04005c008a04000012
:020000040000fa
:040060008a0400000e
:020000040000fa
:040064008a0400000a
:020000040000fa
:040068008a04000006
:020000040000fa
:04006c008a04000002
:020000040000fa
:040070008a040000fe
:020000040000fa
:040074008a040000fa
:020000040000fa
:040078008a040000f6
:020000040000fa
:04007c008a040000f2
:020000040000fa
:040080008a040000ee
:020000040000fa
:040084008a040000ea
:020000040000fa
:040088008a040000e6
:020000040000fa
:04008c008a040000e2
:020000040000fa
:040090008a040000de
:020000040000fa
:040094008a040000da
:020000040000fa
:040098008a040000d6
:020000040000fa
:04009c008a040000d2
:020000040000fa
:0400a0008a040000ce
:020000040000fa
:0400a4008a040000ca
:020000040000fa
:0400a8008a040000c6
:020000040000fa
:0400ac008a040000c2
:020000040000fa
:0400b0008a040000be
:020000040000fa
:0400b4008a040000ba
:020000040000fa
:0400b8008a040000b6
:020000040000fa
:0400bc008a040000b2
:020000040000fa
:0400c0008a040000ae
:020000040000fa
:0400c4008a040000aa
:020000040000fa
:0400c8008a040000a6
:020000040000fa
:0400cc008a040000a2
:020000040000fa
:0400d0008a0400009e
:020000040000fa
:0400d4008a0400009a
:020000040000fa
:0400d8008a04000096
:020000040000fa
:0400dc008a04000092
:020000040000fa
:0400e0008a0400008e
:020000040000fa
:0400e4008a0400008a
:020000040000fa
:0400e8008a04000086
:020000040000fa
:0400ec008a04000082
:020000040000fa
:0400f0008a0400007e
:020000040000fa
:0400f4008a0400007a
:020000040000fa
:0400f8008a04000076
:020000040000fa
:0400fc008a04000072
:020000040000fa
:040100008a0400006d
:020000040000fa
:040104008a04000069
:020000040000fa
:040108008a04000065
:020000040000fa
:04010c008a04000061
:020000040000fa
:040110008a0400005d
:020000040000fa
:040114008a04000059
:020000040000fa
:040118008a04000055
:020000040000fa
:04011c008a04000051
:020000040000fa
:040120008a0400004d
:020000040000fa
:040124008a04000049
:020000040000fa
:040128008a04000045
:020000040000fa
:04012c008a04000041
:020000040000fa
:040130008a0400003d
:020000040000fa
:040134008a04000039
:020000040000fa
:040138008a04000035
:020000040000fa
:04013c008a04000031
:020000040000fa
:040140008a0400002d
:020000040000fa
:040144008a04000029
:020000040000fa
:040148008a04000025
:020000040000fa
:04014c008a04000021
:020000040000fa
:040150008a0400001d
:020000040000fa
:040154008a04000019
:020000040000fa
:040158008a04000015
:020000040000fa
:04015c008a04000011
:020000040000fa
:040160008a0400000d
:020000040000fa
:040164008a04000009
:020000040000fa
:040168008a04000005
:020000040000fa
:04016c008a04000001
:020000040000fa
:040170008a040000fd
:020000040000fa
:040174008a040000f9
:020000040000fa
:040178008a040000f5
:020000040000fa
:04017c008a040000f1
:020000040000fa
:040180008a040000ed
:020000040000fa
:040184008a040000e9
:020000040000fa
:040188008a040000e5
:020000040000fa
:04018c008a040000e1
:020000040000fa
:040190008a040000dd
:020000040000fa
:040194008a040000d9
:020000040000fa
:040198008a040000d5
:020000040000fa
:04019c008a040000d1
:020000040000fa
:0401a0008a040000cd
:020000040000fa
:0401a4008a040000c9
:020000040000fa
:0401a8008a040000c5
:020000040000fa
:0401ac008a040000c1
:020000040000fa
:0401b0008a040000bd
:020000040000fa
:0401b4008a040000b9
:020000040000fa
:0401b8008a040000b5
:020000040000fa
:0401bc008a040000b1
:020000040000fa
:0401c0008a040000ad
:020000040000fa
:0401c4008a040000a9
:020000040000fa
:0401c8008a040000a5
:020000040000fa
:0401cc008a040000a1
:020000040000fa
:0401d0008a0400009d
:020000040000fa
:0401d4008a04000099
:020000040000fa
:0401d8008a04000095
:020000040000fa
:0401dc008a04000091
:020000040000fa
:0401e0008a0400008d
:020000040000fa
:0401e4008a04000089
:020000040000fa
:0401e8008a04000085
:020000040000fa
:0401ec008a04000081
:020000040000fa
:0401f0008a0400007d
:020000040000fa
:0401f4008a04000079
:020000040000fa
:0401f8008a04000075
:020000040000fa
:0401fc008a04000071
:020000040000fa
:040200008a0400006c
:020000040000fa
:040204008a04000068
:020000040000fa
:040208008a04000064
:020000040000fa
:04020c008a04000060
:020000040000fa
:040210008a0400005c
:020000040000fa
:040214008a04000058
:020000040000fa
:040218008a04000054
:020000040000fa
:04021c008a04000050
:020000040000fa
:040220008a0400004c
:020000040000fa
:040224008a04000048
:020000040000fa
:040228008a04000044
:020000040000fa
:04022c008a04000040
:020000040000fa
:040230008a0400003c
:020000040000fa
:040234008a04000038
:020000040000fa
:040238008a04000034
:020000040000fa
:04023c008a04000030
:020000040000fa
:040240008a0400002c
:020000040000fa
:040244008a04000028
:020000040000fa
:040248008a04000024
:020000040000fa
:04024c008a04000020
:020000040000fa
:040250008a0400001c
:020000040000fa
:040254008a04000018
:020000040000fa
:040258008a04000014
:020000040000fa
:04025c008a04000010
:020000040000fa
:040260008a0400000c
:020000040000fa
:040264008a04000008
:020000040000fa
:040268008a04000004
:020000040000fa
:04026c008a04000000
:020000040000fa
:040270008a040000fc
:020000040000fa
:040274008a040000f8
:020000040000fa
:040278008a040000f4
:020000040000fa
:04027c008a040000f0
:020000040000fa
:040280008a040000ec
:020000040000fa
:040284008a040000e8
:020000040000fa
:040288008a040000e4
:020000040000fa
:04028c008a040000e0
:020000040000fa
:040290008a040000dc
:020000040000fa
:040294008a040000d8
:020000040000fa
:040298008a040000d4
:020000040000fa
:04029c008a040000d0
:020000040000fa
:0402a0008a040000cc
:020000040000fa
:0402a4008a040000c8
:020000040000fa
:0402a8008a040000c4
:020000040000fa
:0402ac008a040000c0
:020000040000fa
:0402b0008a040000bc
:020000040000fa
:0402b4008a040000b8
:020000040000fa
:0402b8008a040000b4
:020000040000fa
:0402bc008a040000b0
:020000040000fa
:0402c0008a040000ac
:020000040000fa
:0402c4008a040000a8
:020000040000fa
:0402c8008a040000a4
:020000040000fa
:0402cc008a040000a0
:020000040000fa
:0402d0008a0400009c
:020000040000fa
:0402d4008a04000098
:020000040000fa
:0402d8008a04000094
:020000040000fa
:0402dc008a04000090
:020000040000fa
:0402e0008a0400008c
:020000040000fa
:0402e4008a04000088
:020000040000fa
:0402e8008a04000084
:020000040000fa
:0402ec008a04000080
:020000040000fa
:0402f0008a0400007c
:020000040000fa
:0402f4008a04000078
:020000040000fa
:0402f8008a04000074
:020000040000fa
:0402fc008a04000070
:020000040000fa
:040300008a0400006b
:020000040000fa
:040304008a04000067
:020000040000fa
:040308008a04000063
:020000040000fa
:04030c008a0400005f
:020000040000fa
:040310008a0400005b
:020000040000fa
:040314008a04000057
:020000040000fa
:040318008a04000053
:020000040000fa
:04031c008a0400004f
:020000040000fa
:040320008a0400004b
:020000040000fa
:10040000af0221000eff2c000e018800000020002a
:100410000000e000020032000001200020028800fd
:10042000140007003d0107000000e00003003a004f
:10043000a0842000010020000200370000002000fe
:1004400001002000810f70004220ae000f00070065
:10045000000020000000e0004220ae00000002008a
:100460000000000000060200000000000040da006a
:100470000000fe00200020000000e000020032002a
:10048000100020009001880000000600a1028800f2
:10049000800478000000eb001f003700e284440075
:1004a00054a0b4009905ba00e284440054a0b400fa
:1004b0009906ba00e284440054a0b4000006eb00a0
:1004c000476fde00fd07b200ae018800636ce100fb
:1004d00003003a000ad801000000eb000e003700cc
:1004e000606ce10008003a00004deb000a05e800ee
:1004f000020039003420ec000af0a0008b05e9006e
:10050000f9ff3e00040037006168e100010032009d
:100510000086eb000b00070019c7ba001905ba00e6
:100520000e04e00003003a000a00e000dbff3a009e
:1005300000000600fe07b200ae0288008a047800c0
:10054000f5ff37000cd0a300e20f4d001c0039006e
:1005500089027800354dba000a05e800020039002a
:100560003420ec000af0a0008b05e9000f003200f7
:10057000254dba000a05e800020039003420ec00dd
:100580000af0a0008b05e900080032000c00e00032
:100590000600320015cdba000a05e8000200390055
:1005a0003420ec000af0a0008b05e9008984e80003
:1005b00054a0b4000b00e000e2ff3a000000060087
:1005c0009902ba00055d78008b05e900f7ff32005b
:1005d000c82ade00055d78008b05e900f3ff3200d4
:1005e0000c00e000f1ff320019ddba00eeff370029
:1005f00004082000010037000002eb006100e10068
:1006000001003200100005003200f8003400f8004c
:1006100081027800930188003200be000100e000f2
:100620000c0032000470a70000f0a0003203780034
:10063000c733de00848343004220af008703e80015
:10064000a7018800f607b2007f30e1000400320005
:10065000200020003400f9003200f90000000600fc
:100660008100e9000500e00003003a000180090074
:1006700032100300e8ff37000180090032900300c8
:10068000d561ae00e4ff370030002000f1ff3700f5
:1006900050052000b00e8800a00a2000b00e88008f
:1006a000d3e1a8000000060050052000b00e88002d
:1006b000a00a2000b00e8800d3e1a90000000600c7
:1006c000f606040000000000a4050400000000007d
:1006d0003600f800809fbe00829fbe00849fbe004f
:1006e000869fbe000000fa00c028a9000000eb00b1
:1006f000790207000080fa004f03be004f02be00df
:100700004f01be004f00be003600f9000040060059
:100710003600f800809fbe00829fbe00849fbe000e
:10072000869fbe000000fa0070020700c048a900c2
:1007300010002000680207000080fa004f03be008e
:100740004f02be004f01be004f00be003600f90050
:10075000004006003600f800809fbe00829fbe0069
:10076000849fbe00869fbe000000fa00c068a900fa
:1007700020002000580207000080fa004f03be004e
:100780004f02be004f01be004f00be003600f90010
:10079000004006003600f800809fbe00829fbe0029
:1007a000849fbe00869fbe000000fa00c088a9009a
:1007b00030002000480207000080fa004f03be000e
:1007c0004f02be004f01be004f00be003600f900d0
:1007d000004006003600f800809fbe00829fbe00e9
:1007e000849fbe00869fbe000000fa00c608a900d4
:1007f00070002000380207000080fa004f03be009e
:100800004f02be004f01be004f00be003600f9008f
:10081000004006003600f800809fbe00829fbe00a8
:10082000849fbe00869fbe000000fa002146800023
:1008300000102000008060000000e0000300320093
:10084000c508a900c000200023020700214680003f
:1008500000022000008060000000e0000300320081
:10086000c4a8a900900020001b02070020468000b9
:10087000700060000000e00003003200c488a9009e
:10088000a0002000140207002046800061006000e4
:100890000000e00003003200c408a900b0002000fe
:1008a0000d020700ffff37003600f800809fbe00f2
:1008b000829fbe00849fbe00869fbe000000fa009b
:1008c000308080000000e0000200320030808000b4
:1008d0000000010090022100104078008040e800f4
:1008e00090022100014878008002210011c0b3006d
:1008f000014878000028a9000080fa004f03be00dc
:100900004f02be004f01be004f00be003600f9008e
:10091000004006000040da000000fe000000050074
:020000040000fa
:100920000000fa00007c80000080fa000000060051
:100930000200fa00faff0700000f78001e0078009e
:10094000240007000004e00002003200000028003c
:10095000710007001e0078002a0007000004e00074
:1009600002003200000024006b0007001e00780027
:10097000320007000004e0000200320000202000e6
:10098000650007001e0078003a0007000004e00040
:1009900002003200000820005f0007001e007800ff
:1009a000420007000004e0000200320000042000c2
:1009b000590007001e0078004a0007000004e0000c
:1009c0000200320000012000530007000080fa00fe
:1009d000000006000400fa00100798000040eb0039
:1009e000004f78001e0090000000e00002003d0073
:1009f00010c0b300004f78001e4078000080fa005d
:100a0000000006000400fa00100798000040eb0008
:100a1000004f78009e0090000000240000806000dd
:100a20000000e0000200320010c0b300004f780068
:100a30001e4078000080fa00000006000400fa0062
:100a4000100798000040eb00004f78009e009000d7
:100a500000202000008060000000e0000200320062
:100a600010c0b300004f78001e4078000080fa00ec
:100a7000000006000400fa00100798000040eb0098
:100a8000004f78009e009000000820000080600069
:100a90000000e0000200320010c0b300004f7800f8
:100aa0001e4078000080fa00000006000400fa00f2
:100ab000100798000040eb00004f78009e00900067
:100ac00000042000008060000000e000020032000e
:100ad00010c0b300004f78001e4078000080fa007c
:100ae000000006000400fa00100798000040eb0028
:100af000004f78001e009000700060000000e000d1
:100b00000200320010c0b300004f78001e40780091
:100b10000080fa00000006000200fa00000f7800d2
:100b20009e80ea00007c800000806000007c8800dd
:100b30000080fa00000006000000fa00802fef009d
:100b40000080fa00000006000000fa000028a9005a
:100b5000008080000000e8000080880000808000a5
:100b6000e60f500001003a000030ef0000808000e6
:100b70002b0007000080fa00000006000000fa00c9
:100b80000028a900a17380000008200000806000f8
:100b90000000e00009003a00108080000000e8003a
:100ba0001080880010808000e60f500001003a009d
:100bb0000230ef001080800039000700a173800030
:100bc00000102000008060000000e0000a003a00f1
:100bd0000028a900108080000000e8001080880034
:100be00010808000e60f500001003a000230ef0054
:100bf000108080002a0007000080fa000000060034
:100c00000000fa0019010700a80007003e010700d4
:100c10004a000700405a200077000700ffff370016
:100c20000200fa00000f78001e007800e10f50006b
:100c300009003200e10f500005003900e20f5000ba
:100c400008003200e30f50000a0032000e003700a7
:100c5000762ea80010003700762ea900760ea80088
:100c60000d003700762ea900760ea9005aaea80016
:100c700009003700762ea900760ea9005aaea90009
:100c80005aeea80004003700762ea900760ea900bf
:100c90005aaea9005aeea9000080fa000000060032
:100ca0000200fa00000f78001e007800e20f5000ea
:100cb00011003200e20f500005003e000000e0008d
:100cc00008003200e10f5000080032001600370023
:100cd000e30f50000c003200e40f50000e00320011
:100ce00011003700762ea80012003700762ea800db
:100cf000760ea8000f003700762ea800760ea8000a
:100d00005aaea8000b003700762ea800760ea80079
:100d10005aaea90007003700762ea800760ea9006b
:100d20005aaea90003003700760ea900762ea9005e
:100d30005aaea9000080fa00000006000000fa0088
:100d40000421ef0040e8210040088800000328004b
:100d500000088800308080000000e00002003a00b7
:100d6000606f2000240007000028a9002028a800a8
:100d7000800221008040eb00014878000080fa00ea
:100d8000000006000200fa00000f78009e007800c4
:100d900041088800800221008040eb000148780073
:100da0000080fa00000006000000fa004008800001
:100db0000080fa00000006000200fa00000f780030
:100dc0009e00780021088800800221008040eb000e
:100dd000014878000080fa00000006000000fa00d8
:100de000200880000080fa00000006000000fa00e1
:100df0000080fa00000006000200fa00000f7800f0
:100e00002028a9009e007800318088002028a800b2
:100e10000080fa00000006000000fa0080022100b5
:100e20008040eb00014878002028a80001e1a800dc
:100e30000080fa00000006000000fa0001e1a900ad
:100e40002028a9000080fa00000006000200fa0035
:100e500080022100104f78001e4078000004e0005e
:100e600003003200800221008040eb00014878003e
:100e70001e4078000080fa00000006000000fa0022
:100e800090022100104078000080fb000080fa00f2
:100e9000000006000000fa00900221008040eb00f4
:100ea000014878000080fa00000006000000fa0007
:100eb00010002300307c880060092000407c8800fe
:100ec0008c2fef0010042000507c880010102000b0
:100ed000707c880060092000807c8800100420005d
:100ee000907c88009a2fef00b82fef00ba2fef0008
:100ef000be2fef00002def00a42fef00a62fef0074
:100f0000a82fef00aa2fef00ae2fef00b02fef00b9
:100f1000b22fef007200200080072000a1092000fe
:100f200053f8200080497800814978008249780090
:100f30000001eb00600420007105200043f8200050
:100f40008049780081497800824978000080fa0061
:100f5000000006000000fa00707c8000ee800a00ad
:100f6000000000000080fb0000f0a7000000ea0085
:100f70000000ea004f00de00004078000080fa0028
:100f8000000006000000fa00062eef00222eef00ff
:100f90003e2eef005a2eef00762eef00f0012000db
:100fa00010708800d0ff2f00f07088000080eb00e8
:100fb000d0718800f0f52f00b0728800c0ff2f00bc
:100fc000907388000c2eef00282eef00442eef00c7
:100fd000602eef007c2eef000a2eef00262eef0091
:100fe000422eef005e2eef007a2eef00082eef006b
:100ff000242eef00402eef005c2eef00782eef0045
:10100000f001200000708800d0092000e070880006
:10101000f00c2000c071880000c02700a07288007a
:1010200000042000807388000080fa0000000600a1
:101030000200fa00000f780021028000200f20003b
:10104000008060001e007000200288000080fa000e
:10105000000006000000fa00c3e8a800000000003d
:10106000000000000080fa00000006000000fa0006
:10107000c4ff0700240007008cff07002fff0700b4
:10108000f4ff070000022000e9ff07000080fa00db
:041090000000060056
:020000040000fa
:101094000810000020000000800000000410000080
:1010a4000200000082000000ffff00002810000082
:1010b4000200000080000000061000000200000092
:1010c4008000000000100000040000008000000008
:0410d4000000000018
:020000040000fa
:1010d8000200fa00000f78009e0078002180880046
:1010e800ffff37000000fa00800021008007780029
:1010f80000022100000188000080fa0000000600bc
:101108000000fa0001428000f0f82f0080806000a3
:101118000003200001007000004288000080fa00ef
:0411280000000600bd
:020000040000fa
:02000004000af0
:04fe0000ffff000000
:020000040000fa
:02000004000af0
:04fe2000ffffff00e1
:020000040000fa
:02000004000af0
:04fe30007fffff0051
:020000040000fa
:02000004000af0
:04fe3800bfffff0009
:020000040000fa
:02000004000af0
:04fe40006003ff005c
:020000040000fa
:02000004000af0
:04fe4800ffffff00b9
:020000040000fa
:02000004000af0
:04fe5000dfffff00d1
:020000040000fa
:02000004000af0
:04fe58000000ff00a7
:020000040000fa
:02000004000af0
:04fe60000000ff009f
:020000040000fa
:02000004000af0
:04fe68000000ff0097
:020000040000fa
:02000004000af0
:04fe70000000ff008f
:020000040000fa
:02000004000af0
:04fe7800ffffff0089
:020000040000fa
:02000004000af0
:04fe8000fffcff0084
:020000040000fa
:02000004000af0
:04fe8800ffffff0079
:020000040000fa
:02000004000af0
:04feb000ffffff0051
:020000040000fa
:02000004000af0
:04fec000ffffff0041
:020000040000fa
:02000004000af0
:04fed000ffffff0031
:020000040000fa
:02000004000af0
:04fee000ffffff0021
:020000040000fa
:02000004000af0
:04fef000ffffff0011
:020000040000fa
:02000004000af0
:04fff800ffffff0008
:020000040000fa
:020000040100f9
:04300000ffffff00cf
:00000001FF
